{
  "_format": "hh-sol-artifact-1",
  "contractName": "SimpleTradeContract",
  "sourceName": "contracts/MainV2.sol",
  "abi": [
    {
      "inputs": [
        {
          "internalType": "address",
          "name": "_endpoint",
          "type": "address"
        },
        {
          "internalType": "address",
          "name": "_owner",
          "type": "address"
        },
        {
          "internalType": "uint32",
          "name": "_lzEid",
          "type": "uint32"
        }
      ],
      "stateMutability": "nonpayable",
      "type": "constructor"
    },
    {
      "inputs": [
        {
          "internalType": "address",
          "name": "target",
          "type": "address"
        }
      ],
      "name": "AddressEmptyCode",
      "type": "error"
    },
    {
      "inputs": [
        {
          "internalType": "address",
          "name": "account",
          "type": "address"
        }
      ],
      "name": "AddressInsufficientBalance",
      "type": "error"
    },
    {
      "inputs": [],
      "name": "FailedInnerCall",
      "type": "error"
    },
    {
      "inputs": [],
      "name": "InvalidDelegate",
      "type": "error"
    },
    {
      "inputs": [],
      "name": "InvalidEndpointCall",
      "type": "error"
    },
    {
      "inputs": [
        {
          "internalType": "bytes",
          "name": "options",
          "type": "bytes"
        }
      ],
      "name": "InvalidOptions",
      "type": "error"
    },
    {
      "inputs": [],
      "name": "LzTokenUnavailable",
      "type": "error"
    },
    {
      "inputs": [
        {
          "internalType": "uint32",
          "name": "eid",
          "type": "uint32"
        }
      ],
      "name": "NoPeer",
      "type": "error"
    },
    {
      "inputs": [
        {
          "internalType": "uint256",
          "name": "msgValue",
          "type": "uint256"
        }
      ],
      "name": "NotEnoughNative",
      "type": "error"
    },
    {
      "inputs": [
        {
          "internalType": "address",
          "name": "addr",
          "type": "address"
        }
      ],
      "name": "OnlyEndpoint",
      "type": "error"
    },
    {
      "inputs": [
        {
          "internalType": "uint32",
          "name": "eid",
          "type": "uint32"
        },
        {
          "internalType": "bytes32",
          "name": "sender",
          "type": "bytes32"
        }
      ],
      "name": "OnlyPeer",
      "type": "error"
    },
    {
      "inputs": [
        {
          "internalType": "address",
          "name": "owner",
          "type": "address"
        }
      ],
      "name": "OwnableInvalidOwner",
      "type": "error"
    },
    {
      "inputs": [
        {
          "internalType": "address",
          "name": "account",
          "type": "address"
        }
      ],
      "name": "OwnableUnauthorizedAccount",
      "type": "error"
    },
    {
      "inputs": [
        {
          "internalType": "address",
          "name": "token",
          "type": "address"
        }
      ],
      "name": "SafeERC20FailedOperation",
      "type": "error"
    },
    {
      "anonymous": false,
      "inputs": [
        {
          "components": [
            {
              "internalType": "uint32",
              "name": "srcEid",
              "type": "uint32"
            },
            {
              "internalType": "bytes32",
              "name": "sender",
              "type": "bytes32"
            },
            {
              "internalType": "uint64",
              "name": "nonce",
              "type": "uint64"
            }
          ],
          "indexed": false,
          "internalType": "struct Origin",
          "name": "_origin",
          "type": "tuple"
        },
        {
          "indexed": false,
          "internalType": "bytes32",
          "name": "_guid",
          "type": "bytes32"
        },
        {
          "indexed": false,
          "internalType": "bytes",
          "name": "_packet",
          "type": "bytes"
        }
      ],
      "name": "AnalyzeLzReceive",
      "type": "event"
    },
    {
      "anonymous": false,
      "inputs": [
        {
          "indexed": false,
          "internalType": "uint16",
          "name": "_msgType",
          "type": "uint16"
        },
        {
          "indexed": false,
          "internalType": "uint256",
          "name": "extraOptionsStart",
          "type": "uint256"
        },
        {
          "indexed": false,
          "internalType": "uint256",
          "name": "extraOptionsLength",
          "type": "uint256"
        }
      ],
      "name": "AnalyzePacket",
      "type": "event"
    },
    {
      "anonymous": false,
      "inputs": [
        {
          "indexed": false,
          "internalType": "address",
          "name": "sender",
          "type": "address"
        },
        {
          "indexed": false,
          "internalType": "uint32",
          "name": "srcLzc",
          "type": "uint32"
        },
        {
          "indexed": false,
          "internalType": "address",
          "name": "srcToken",
          "type": "address"
        },
        {
          "indexed": false,
          "internalType": "bytes32",
          "name": "dstToken",
          "type": "bytes32"
        },
        {
          "indexed": false,
          "internalType": "uint32",
          "name": "srcIndex",
          "type": "uint32"
        },
        {
          "indexed": false,
          "internalType": "uint32",
          "name": "dstIndex",
          "type": "uint32"
        },
        {
          "indexed": false,
          "internalType": "address",
          "name": "taker",
          "type": "address"
        },
        {
          "indexed": false,
          "internalType": "uint256",
          "name": "minAmount",
          "type": "uint256"
        },
        {
          "indexed": false,
          "internalType": "uint256",
          "name": "status",
          "type": "uint256"
        }
      ],
      "name": "AnalyzePayload",
      "type": "event"
    },
    {
      "anonymous": false,
      "inputs": [
        {
          "indexed": true,
          "internalType": "address",
          "name": "challenger",
          "type": "address"
        },
        {
          "indexed": false,
          "internalType": "address",
          "name": "srcAsset",
          "type": "address"
        },
        {
          "indexed": false,
          "internalType": "bytes32",
          "name": "dstAsset",
          "type": "bytes32"
        },
        {
          "indexed": false,
          "internalType": "uint32",
          "name": "dstLzc",
          "type": "uint32"
        },
        {
          "indexed": false,
          "internalType": "uint32",
          "name": "srcIndex",
          "type": "uint32"
        },
        {
          "indexed": false,
          "internalType": "address",
          "name": "bonder",
          "type": "address"
        },
        {
          "indexed": false,
          "internalType": "uint32",
          "name": "dstIndex",
          "type": "uint32"
        }
      ],
      "name": "ChallengeRaised",
      "type": "event"
    },
    {
      "anonymous": false,
      "inputs": [
        {
          "components": [
            {
              "internalType": "uint32",
              "name": "eid",
              "type": "uint32"
            },
            {
              "internalType": "uint16",
              "name": "msgType",
              "type": "uint16"
            },
            {
              "internalType": "bytes",
              "name": "options",
              "type": "bytes"
            }
          ],
          "indexed": false,
          "internalType": "struct EnforcedOptionParam[]",
          "name": "_enforcedOptions",
          "type": "tuple[]"
        }
      ],
      "name": "EnforcedOptionSet",
      "type": "event"
    },
    {
      "anonymous": false,
      "inputs": [
        {
          "indexed": true,
          "internalType": "address",
          "name": "bonder",
          "type": "address"
        },
        {
          "indexed": false,
          "internalType": "address",
          "name": "srcAsset",
          "type": "address"
        },
        {
          "indexed": false,
          "internalType": "bytes32",
          "name": "dstAsset",
          "type": "bytes32"
        },
        {
          "indexed": false,
          "internalType": "uint32",
          "name": "dstLzc",
          "type": "uint32"
        },
        {
          "indexed": false,
          "internalType": "uint32",
          "name": "srcIndex",
          "type": "uint32"
        },
        {
          "indexed": false,
          "internalType": "uint32",
          "name": "dstIndex",
          "type": "uint32"
        },
        {
          "indexed": false,
          "internalType": "uint16",
          "name": "bondFee",
          "type": "uint16"
        }
      ],
      "name": "MatchConfirmed",
      "type": "event"
    },
    {
      "anonymous": false,
      "inputs": [
        {
          "indexed": true,
          "internalType": "address",
          "name": "bonder",
          "type": "address"
        },
        {
          "indexed": false,
          "internalType": "address",
          "name": "srcAsset",
          "type": "address"
        },
        {
          "indexed": false,
          "internalType": "bytes32",
          "name": "dstAsset",
          "type": "bytes32"
        },
        {
          "indexed": false,
          "internalType": "uint32",
          "name": "dstLzc",
          "type": "uint32"
        },
        {
          "indexed": false,
          "internalType": "uint32",
          "name": "srcIndex",
          "type": "uint32"
        },
        {
          "indexed": false,
          "internalType": "uint32",
          "name": "dstIndex",
          "type": "uint32"
        },
        {
          "indexed": false,
          "internalType": "uint96",
          "name": "srcQuantity",
          "type": "uint96"
        },
        {
          "indexed": false,
          "internalType": "uint96",
          "name": "dstQuantity",
          "type": "uint96"
        }
      ],
      "name": "MatchCreated",
      "type": "event"
    },
    {
      "anonymous": false,
      "inputs": [
        {
          "indexed": true,
          "internalType": "address",
          "name": "bonder",
          "type": "address"
        },
        {
          "indexed": false,
          "internalType": "address",
          "name": "srcAsset",
          "type": "address"
        },
        {
          "indexed": false,
          "internalType": "bytes32",
          "name": "dstAsset",
          "type": "bytes32"
        },
        {
          "indexed": false,
          "internalType": "uint32",
          "name": "dstLzc",
          "type": "uint32"
        },
        {
          "indexed": false,
          "internalType": "uint32",
          "name": "srcIndex",
          "type": "uint32"
        },
        {
          "indexed": false,
          "internalType": "uint32",
          "name": "dstIndex",
          "type": "uint32"
        },
        {
          "indexed": false,
          "internalType": "uint96",
          "name": "srcQuantity",
          "type": "uint96"
        },
        {
          "indexed": false,
          "internalType": "uint96",
          "name": "dstQuantity",
          "type": "uint96"
        },
        {
          "indexed": false,
          "internalType": "bool",
          "name": "isWrapped",
          "type": "bool"
        }
      ],
      "name": "MatchExecuted",
      "type": "event"
    },
    {
      "anonymous": false,
      "inputs": [
        {
          "indexed": true,
          "internalType": "address",
          "name": "bonder",
          "type": "address"
        },
        {
          "indexed": false,
          "internalType": "address",
          "name": "srcAsset",
          "type": "address"
        },
        {
          "indexed": false,
          "internalType": "bytes32",
          "name": "dstAsset",
          "type": "bytes32"
        },
        {
          "indexed": false,
          "internalType": "uint32",
          "name": "dstLzc",
          "type": "uint32"
        },
        {
          "indexed": false,
          "internalType": "uint32",
          "name": "srcIndex",
          "type": "uint32"
        },
        {
          "indexed": false,
          "internalType": "uint32",
          "name": "dstIndex",
          "type": "uint32"
        }
      ],
      "name": "MatchUnwound",
      "type": "event"
    },
    {
      "anonymous": false,
      "inputs": [
        {
          "indexed": false,
          "internalType": "string",
          "name": "message",
          "type": "string"
        },
        {
          "indexed": false,
          "internalType": "uint32",
          "name": "senderEid",
          "type": "uint32"
        },
        {
          "indexed": false,
          "internalType": "bytes32",
          "name": "sender",
          "type": "bytes32"
        }
      ],
      "name": "MessageReceived",
      "type": "event"
    },
    {
      "anonymous": false,
      "inputs": [
        {
          "indexed": false,
          "internalType": "bytes",
          "name": "message",
          "type": "bytes"
        },
        {
          "indexed": false,
          "internalType": "uint32",
          "name": "dstEid",
          "type": "uint32"
        }
      ],
      "name": "MessageSent",
      "type": "event"
    },
    {
      "anonymous": false,
      "inputs": [
        {
          "indexed": true,
          "internalType": "address",
          "name": "sender",
          "type": "address"
        },
        {
          "indexed": false,
          "internalType": "address",
          "name": "srcAsset",
          "type": "address"
        },
        {
          "indexed": false,
          "internalType": "bytes32",
          "name": "dstAsset",
          "type": "bytes32"
        },
        {
          "indexed": false,
          "internalType": "uint32",
          "name": "dstLzc",
          "type": "uint32"
        },
        {
          "indexed": false,
          "internalType": "uint32",
          "name": "orderIndex",
          "type": "uint32"
        }
      ],
      "name": "OrderCancelled",
      "type": "event"
    },
    {
      "anonymous": false,
      "inputs": [
        {
          "indexed": true,
          "internalType": "address",
          "name": "sender",
          "type": "address"
        },
        {
          "indexed": false,
          "internalType": "address",
          "name": "srcAsset",
          "type": "address"
        },
        {
          "indexed": false,
          "internalType": "bytes32",
          "name": "dstAsset",
          "type": "bytes32"
        },
        {
          "indexed": false,
          "internalType": "uint32",
          "name": "dstLzc",
          "type": "uint32"
        },
        {
          "indexed": false,
          "internalType": "uint32",
          "name": "orderIndex",
          "type": "uint32"
        },
        {
          "indexed": false,
          "internalType": "uint96",
          "name": "amount",
          "type": "uint96"
        },
        {
          "indexed": false,
          "internalType": "uint96",
          "name": "dstOutput",
          "type": "uint96"
        },
        {
          "indexed": false,
          "internalType": "uint16",
          "name": "bondFee",
          "type": "uint16"
        },
        {
          "indexed": false,
          "internalType": "bool",
          "name": "isMaker",
          "type": "bool"
        }
      ],
      "name": "OrderPlaced",
      "type": "event"
    },
    {
      "anonymous": false,
      "inputs": [
        {
          "indexed": true,
          "internalType": "address",
          "name": "previousOwner",
          "type": "address"
        },
        {
          "indexed": true,
          "internalType": "address",
          "name": "newOwner",
          "type": "address"
        }
      ],
      "name": "OwnershipTransferred",
      "type": "event"
    },
    {
      "anonymous": false,
      "inputs": [
        {
          "indexed": false,
          "internalType": "uint32",
          "name": "eid",
          "type": "uint32"
        },
        {
          "indexed": false,
          "internalType": "bytes32",
          "name": "peer",
          "type": "bytes32"
        }
      ],
      "name": "PeerSet",
      "type": "event"
    },
    {
      "anonymous": false,
      "inputs": [
        {
          "indexed": false,
          "internalType": "string",
          "name": "message",
          "type": "string"
        },
        {
          "indexed": false,
          "internalType": "uint32",
          "name": "dstEid",
          "type": "uint32"
        }
      ],
      "name": "ReturnMessageSent",
      "type": "event"
    },
    {
      "inputs": [
        {
          "components": [
            {
              "internalType": "uint32",
              "name": "srcEid",
              "type": "uint32"
            },
            {
              "internalType": "bytes32",
              "name": "sender",
              "type": "bytes32"
            },
            {
              "internalType": "uint64",
              "name": "nonce",
              "type": "uint64"
            }
          ],
          "internalType": "struct Origin",
          "name": "origin",
          "type": "tuple"
        }
      ],
      "name": "allowInitializePath",
      "outputs": [
        {
          "internalType": "bool",
          "name": "",
          "type": "bool"
        }
      ],
      "stateMutability": "view",
      "type": "function"
    },
    {
      "inputs": [
        {
          "internalType": "uint256",
          "name": "number",
          "type": "uint256"
        },
        {
          "internalType": "uint256",
          "name": "_fee",
          "type": "uint256"
        }
      ],
      "name": "applyFee",
      "outputs": [
        {
          "internalType": "uint256",
          "name": "",
          "type": "uint256"
        }
      ],
      "stateMutability": "pure",
      "type": "function"
    },
    {
      "inputs": [
        {
          "internalType": "uint256",
          "name": "number",
          "type": "uint256"
        },
        {
          "internalType": "uint256",
          "name": "_fee",
          "type": "uint256"
        }
      ],
      "name": "bondFee",
      "outputs": [
        {
          "internalType": "uint256",
          "name": "",
          "type": "uint256"
        }
      ],
      "stateMutability": "pure",
      "type": "function"
    },
    {
      "inputs": [
        {
          "internalType": "uint256",
          "name": "",
          "type": "uint256"
        },
        {
          "internalType": "bytes32",
          "name": "",
          "type": "bytes32"
        },
        {
          "internalType": "address",
          "name": "",
          "type": "address"
        }
      ],
      "name": "book",
      "outputs": [
        {
          "internalType": "address",
          "name": "src",
          "type": "address"
        },
        {
          "internalType": "bytes32",
          "name": "dst",
          "type": "bytes32"
        },
        {
          "internalType": "uint16",
          "name": "lzc",
          "type": "uint16"
        }
      ],
      "stateMutability": "view",
      "type": "function"
    },
    {
      "inputs": [
        {
          "components": [
            {
              "internalType": "address",
              "name": "srcAsset",
              "type": "address"
            },
            {
              "internalType": "bytes32",
              "name": "dstAsset",
              "type": "bytes32"
            },
            {
              "internalType": "uint32",
              "name": "dstLzc",
              "type": "uint32"
            }
          ],
          "internalType": "struct TradeInterface.OrderDirection",
          "name": "direction",
          "type": "tuple"
        },
        {
          "internalType": "uint32",
          "name": "orderIndex",
          "type": "uint32"
        }
      ],
      "name": "cancelOrder",
      "outputs": [],
      "stateMutability": "nonpayable",
      "type": "function"
    },
    {
      "inputs": [
        {
          "internalType": "uint32",
          "name": "_eid",
          "type": "uint32"
        },
        {
          "internalType": "uint16",
          "name": "_msgType",
          "type": "uint16"
        },
        {
          "internalType": "bytes",
          "name": "_extraOptions",
          "type": "bytes"
        }
      ],
      "name": "combineOptions",
      "outputs": [
        {
          "internalType": "bytes",
          "name": "",
          "type": "bytes"
        }
      ],
      "stateMutability": "view",
      "type": "function"
    },
    {
      "inputs": [
        {
          "components": [
            {
              "internalType": "address",
              "name": "srcAsset",
              "type": "address"
            },
            {
              "internalType": "bytes32",
              "name": "dstAsset",
              "type": "bytes32"
            },
            {
              "internalType": "uint32",
              "name": "dstLzc",
              "type": "uint32"
            }
          ],
          "internalType": "struct TradeInterface.OrderDirection",
          "name": "direction",
          "type": "tuple"
        },
        {
          "internalType": "uint32",
          "name": "srcIndex",
          "type": "uint32"
        }
      ],
      "name": "confirmMatch",
      "outputs": [],
      "stateMutability": "nonpayable",
      "type": "function"
    },
    {
      "inputs": [
        {
          "components": [
            {
              "internalType": "address",
              "name": "srcAsset",
              "type": "address"
            },
            {
              "internalType": "bytes32",
              "name": "dstAsset",
              "type": "bytes32"
            },
            {
              "internalType": "uint32",
              "name": "dstLzc",
              "type": "uint32"
            }
          ],
          "internalType": "struct TradeInterface.OrderDirection",
          "name": "direction",
          "type": "tuple"
        },
        {
          "internalType": "uint32",
          "name": "srcIndex",
          "type": "uint32"
        },
        {
          "internalType": "uint32",
          "name": "dstIndex",
          "type": "uint32"
        },
        {
          "internalType": "bytes32",
          "name": "Counterparty",
          "type": "bytes32"
        },
        {
          "internalType": "uint96",
          "name": "srcQuantity",
          "type": "uint96"
        },
        {
          "internalType": "uint96",
          "name": "dstQuantity",
          "type": "uint96"
        }
      ],
      "name": "createMatch",
      "outputs": [],
      "stateMutability": "nonpayable",
      "type": "function"
    },
    {
      "inputs": [
        {
          "internalType": "bytes",
          "name": "encodedMessage",
          "type": "bytes"
        }
      ],
      "name": "decodeMessage",
      "outputs": [
        {
          "components": [
            {
              "internalType": "uint32",
              "name": "srcIndex",
              "type": "uint32"
            },
            {
              "internalType": "bytes32",
              "name": "splToken",
              "type": "bytes32"
            },
            {
              "internalType": "address",
              "name": "erc20Token",
              "type": "address"
            },
            {
              "internalType": "address",
              "name": "taker",
              "type": "address"
            },
            {
              "internalType": "uint256",
              "name": "amount",
              "type": "uint256"
            }
          ],
          "internalType": "struct TradeInterface.Payload",
          "name": "message",
          "type": "tuple"
        },
        {
          "internalType": "uint16",
          "name": "msgType",
          "type": "uint16"
        }
      ],
      "stateMutability": "pure",
      "type": "function"
    },
    {
      "inputs": [
        {
          "components": [
            {
              "internalType": "uint32",
              "name": "srcIndex",
              "type": "uint32"
            },
            {
              "internalType": "bytes32",
              "name": "splToken",
              "type": "bytes32"
            },
            {
              "internalType": "address",
              "name": "erc20Token",
              "type": "address"
            },
            {
              "internalType": "address",
              "name": "taker",
              "type": "address"
            },
            {
              "internalType": "uint256",
              "name": "amount",
              "type": "uint256"
            }
          ],
          "internalType": "struct TradeInterface.Payload",
          "name": "message",
          "type": "tuple"
        },
        {
          "internalType": "uint16",
          "name": "msgType",
          "type": "uint16"
        },
        {
          "internalType": "uint256",
          "name": "extraOptionsLength",
          "type": "uint256"
        }
      ],
      "name": "encodeMessage",
      "outputs": [
        {
          "internalType": "bytes",
          "name": "encodedMessage",
          "type": "bytes"
        }
      ],
      "stateMutability": "pure",
      "type": "function"
    },
    {
      "inputs": [],
      "name": "endpoint",
      "outputs": [
        {
          "internalType": "contract ILayerZeroEndpointV2",
          "name": "",
          "type": "address"
        }
      ],
      "stateMutability": "view",
      "type": "function"
    },
    {
      "inputs": [
        {
          "internalType": "uint32",
          "name": "eid",
          "type": "uint32"
        },
        {
          "internalType": "uint16",
          "name": "msgType",
          "type": "uint16"
        }
      ],
      "name": "enforcedOptions",
      "outputs": [
        {
          "internalType": "bytes",
          "name": "enforcedOption",
          "type": "bytes"
        }
      ],
      "stateMutability": "view",
      "type": "function"
    },
    {
      "inputs": [
        {
          "components": [
            {
              "internalType": "address",
              "name": "srcAsset",
              "type": "address"
            },
            {
              "internalType": "bytes32",
              "name": "dstAsset",
              "type": "bytes32"
            },
            {
              "internalType": "uint32",
              "name": "dstLzc",
              "type": "uint32"
            }
          ],
          "internalType": "struct TradeInterface.OrderDirection",
          "name": "direction",
          "type": "tuple"
        },
        {
          "internalType": "uint32",
          "name": "index",
          "type": "uint32"
        },
        {
          "internalType": "address",
          "name": "Counterparty",
          "type": "address"
        },
        {
          "internalType": "uint96",
          "name": "srcQuantity",
          "type": "uint96"
        }
      ],
      "name": "executeMatch",
      "outputs": [],
      "stateMutability": "nonpayable",
      "type": "function"
    },
    {
      "inputs": [
        {
          "components": [
            {
              "internalType": "address",
              "name": "srcAsset",
              "type": "address"
            },
            {
              "internalType": "bytes32",
              "name": "dstAsset",
              "type": "bytes32"
            },
            {
              "internalType": "uint32",
              "name": "dstLzc",
              "type": "uint32"
            }
          ],
          "internalType": "struct TradeInterface.OrderDirection",
          "name": "direction",
          "type": "tuple"
        },
        {
          "internalType": "uint32",
          "name": "index",
          "type": "uint32"
        }
      ],
      "name": "finishChallenge",
      "outputs": [],
      "stateMutability": "payable",
      "type": "function"
    },
    {
      "inputs": [
        {
          "internalType": "address",
          "name": "tkn",
          "type": "address"
        },
        {
          "internalType": "address",
          "name": "to",
          "type": "address"
        },
        {
          "internalType": "uint256",
          "name": "amount",
          "type": "uint256"
        }
      ],
      "name": "forceApprove",
      "outputs": [],
      "stateMutability": "payable",
      "type": "function"
    },
    {
      "inputs": [
        {
          "internalType": "address",
          "name": "srcAsset",
          "type": "address"
        },
        {
          "internalType": "bytes32",
          "name": "dstAsset",
          "type": "bytes32"
        },
        {
          "internalType": "uint256",
          "name": "dstLzc",
          "type": "uint256"
        },
        {
          "internalType": "uint256",
          "name": "index",
          "type": "uint256"
        }
      ],
      "name": "getMatch",
      "outputs": [
        {
          "components": [
            {
              "internalType": "uint32",
              "name": "dstIndex",
              "type": "uint32"
            },
            {
              "internalType": "uint96",
              "name": "srcQuantity",
              "type": "uint96"
            },
            {
              "internalType": "uint96",
              "name": "dstQuantity",
              "type": "uint96"
            },
            {
              "internalType": "bytes32",
              "name": "receiver",
              "type": "bytes32"
            },
            {
              "internalType": "address",
              "name": "bonder",
              "type": "address"
            },
            {
              "internalType": "uint96",
              "name": "blockNumber",
              "type": "uint96"
            },
            {
              "internalType": "bool",
              "name": "finalized",
              "type": "bool"
            },
            {
              "internalType": "bool",
              "name": "challenged",
              "type": "bool"
            }
          ],
          "internalType": "struct TradeInterface.Match",
          "name": "_match",
          "type": "tuple"
        }
      ],
      "stateMutability": "view",
      "type": "function"
    },
    {
      "inputs": [
        {
          "internalType": "address",
          "name": "srcAsset",
          "type": "address"
        },
        {
          "internalType": "bytes32",
          "name": "dstAsset",
          "type": "bytes32"
        },
        {
          "internalType": "uint256",
          "name": "dstLzc",
          "type": "uint256"
        },
        {
          "internalType": "uint256",
          "name": "index",
          "type": "uint256"
        }
      ],
      "name": "getOrder",
      "outputs": [
        {
          "components": [
            {
              "internalType": "address",
              "name": "sender",
              "type": "address"
            },
            {
              "components": [
                {
                  "internalType": "uint96",
                  "name": "amount",
                  "type": "uint96"
                },
                {
                  "internalType": "uint96",
                  "name": "dstOutput",
                  "type": "uint96"
                },
                {
                  "internalType": "uint16",
                  "name": "bondFee",
                  "type": "uint16"
                },
                {
                  "internalType": "address",
                  "name": "bondAsset",
                  "type": "address"
                },
                {
                  "internalType": "uint96",
                  "name": "bondAmount",
                  "type": "uint96"
                }
              ],
              "internalType": "struct TradeInterface.OrderFunding",
              "name": "funding",
              "type": "tuple"
            },
            {
              "components": [
                {
                  "internalType": "uint32",
                  "name": "timestamp",
                  "type": "uint32"
                },
                {
                  "internalType": "uint16",
                  "name": "challengeOffset",
                  "type": "uint16"
                },
                {
                  "internalType": "uint16",
                  "name": "challengeWindow",
                  "type": "uint16"
                }
              ],
              "internalType": "struct TradeInterface.OrderExpiration",
              "name": "expiration",
              "type": "tuple"
            },
            {
              "internalType": "uint96",
              "name": "settled",
              "type": "uint96"
            },
            {
              "internalType": "bool",
              "name": "isMaker",
              "type": "bool"
            }
          ],
          "internalType": "struct TradeInterface.Order",
          "name": "_order",
          "type": "tuple"
        }
      ],
      "stateMutability": "view",
      "type": "function"
    },
    {
      "inputs": [
        {
          "internalType": "address",
          "name": "srcAsset",
          "type": "address"
        },
        {
          "internalType": "bytes32",
          "name": "dstAsset",
          "type": "bytes32"
        },
        {
          "internalType": "uint256",
          "name": "dstLzc",
          "type": "uint256"
        }
      ],
      "name": "getOrders",
      "outputs": [
        {
          "components": [
            {
              "internalType": "address",
              "name": "sender",
              "type": "address"
            },
            {
              "components": [
                {
                  "internalType": "uint96",
                  "name": "amount",
                  "type": "uint96"
                },
                {
                  "internalType": "uint96",
                  "name": "dstOutput",
                  "type": "uint96"
                },
                {
                  "internalType": "uint16",
                  "name": "bondFee",
                  "type": "uint16"
                },
                {
                  "internalType": "address",
                  "name": "bondAsset",
                  "type": "address"
                },
                {
                  "internalType": "uint96",
                  "name": "bondAmount",
                  "type": "uint96"
                }
              ],
              "internalType": "struct TradeInterface.OrderFunding",
              "name": "funding",
              "type": "tuple"
            },
            {
              "components": [
                {
                  "internalType": "uint32",
                  "name": "timestamp",
                  "type": "uint32"
                },
                {
                  "internalType": "uint16",
                  "name": "challengeOffset",
                  "type": "uint16"
                },
                {
                  "internalType": "uint16",
                  "name": "challengeWindow",
                  "type": "uint16"
                }
              ],
              "internalType": "struct TradeInterface.OrderExpiration",
              "name": "expiration",
              "type": "tuple"
            },
            {
              "internalType": "uint96",
              "name": "settled",
              "type": "uint96"
            },
            {
              "internalType": "bool",
              "name": "isMaker",
              "type": "bool"
            }
          ],
          "internalType": "struct TradeInterface.Order[]",
          "name": "orders",
          "type": "tuple[]"
        }
      ],
      "stateMutability": "view",
      "type": "function"
    },
    {
      "inputs": [
        {
          "components": [
            {
              "internalType": "address",
              "name": "srcAsset",
              "type": "address"
            },
            {
              "internalType": "bytes32",
              "name": "dstAsset",
              "type": "bytes32"
            },
            {
              "internalType": "uint32",
              "name": "dstLzc",
              "type": "uint32"
            }
          ],
          "internalType": "struct TradeInterface.OrderDirection",
          "name": "direction",
          "type": "tuple"
        },
        {
          "internalType": "uint32",
          "name": "srcIndex",
          "type": "uint32"
        }
      ],
      "name": "getQuote",
      "outputs": [
        {
          "internalType": "uint256",
          "name": "quote",
          "type": "uint256"
        }
      ],
      "stateMutability": "nonpayable",
      "type": "function"
    },
    {
      "inputs": [
        {
          "internalType": "address",
          "name": "srcAsset",
          "type": "address"
        },
        {
          "internalType": "bytes32",
          "name": "dstAsset",
          "type": "bytes32"
        },
        {
          "internalType": "uint256",
          "name": "dstLzc",
          "type": "uint256"
        },
        {
          "internalType": "uint256",
          "name": "index",
          "type": "uint256"
        }
      ],
      "name": "getReceipt",
      "outputs": [
        {
          "components": [
            {
              "internalType": "uint96",
              "name": "payoutQuantity",
              "type": "uint96"
            },
            {
              "internalType": "address",
              "name": "receiver",
              "type": "address"
            },
            {
              "internalType": "address",
              "name": "payer",
              "type": "address"
            },
            {
              "internalType": "bool",
              "name": "is_valid",
              "type": "bool"
            }
          ],
          "internalType": "struct TradeInterface.Receipt",
          "name": "_receipt",
          "type": "tuple"
        }
      ],
      "stateMutability": "view",
      "type": "function"
    },
    {
      "inputs": [
        {
          "components": [
            {
              "internalType": "uint32",
              "name": "srcEid",
              "type": "uint32"
            },
            {
              "internalType": "bytes32",
              "name": "sender",
              "type": "bytes32"
            },
            {
              "internalType": "uint64",
              "name": "nonce",
              "type": "uint64"
            }
          ],
          "internalType": "struct Origin",
          "name": "",
          "type": "tuple"
        },
        {
          "internalType": "bytes",
          "name": "",
          "type": "bytes"
        },
        {
          "internalType": "address",
          "name": "_sender",
          "type": "address"
        }
      ],
      "name": "isComposeMsgSender",
      "outputs": [
        {
          "internalType": "bool",
          "name": "",
          "type": "bool"
        }
      ],
      "stateMutability": "view",
      "type": "function"
    },
    {
      "inputs": [
        {
          "components": [
            {
              "internalType": "uint32",
              "name": "srcEid",
              "type": "uint32"
            },
            {
              "internalType": "bytes32",
              "name": "sender",
              "type": "bytes32"
            },
            {
              "internalType": "uint64",
              "name": "nonce",
              "type": "uint64"
            }
          ],
          "internalType": "struct Origin",
          "name": "_origin",
          "type": "tuple"
        },
        {
          "internalType": "bytes32",
          "name": "_guid",
          "type": "bytes32"
        },
        {
          "internalType": "bytes",
          "name": "_message",
          "type": "bytes"
        },
        {
          "internalType": "address",
          "name": "_executor",
          "type": "address"
        },
        {
          "internalType": "bytes",
          "name": "_extraData",
          "type": "bytes"
        }
      ],
      "name": "lzReceive",
      "outputs": [],
      "stateMutability": "payable",
      "type": "function"
    },
    {
      "inputs": [
        {
          "internalType": "uint32",
          "name": "",
          "type": "uint32"
        },
        {
          "internalType": "bytes32",
          "name": "",
          "type": "bytes32"
        }
      ],
      "name": "nextNonce",
      "outputs": [
        {
          "internalType": "uint64",
          "name": "nonce",
          "type": "uint64"
        }
      ],
      "stateMutability": "view",
      "type": "function"
    },
    {
      "inputs": [],
      "name": "oAppVersion",
      "outputs": [
        {
          "internalType": "uint64",
          "name": "senderVersion",
          "type": "uint64"
        },
        {
          "internalType": "uint64",
          "name": "receiverVersion",
          "type": "uint64"
        }
      ],
      "stateMutability": "pure",
      "type": "function"
    },
    {
      "inputs": [],
      "name": "owner",
      "outputs": [
        {
          "internalType": "address",
          "name": "",
          "type": "address"
        }
      ],
      "stateMutability": "view",
      "type": "function"
    },
    {
      "inputs": [
        {
          "internalType": "uint32",
          "name": "eid",
          "type": "uint32"
        }
      ],
      "name": "peers",
      "outputs": [
        {
          "internalType": "bytes32",
          "name": "peer",
          "type": "bytes32"
        }
      ],
      "stateMutability": "view",
      "type": "function"
    },
    {
      "inputs": [
        {
          "components": [
            {
              "internalType": "address",
              "name": "srcAsset",
              "type": "address"
            },
            {
              "internalType": "bytes32",
              "name": "dstAsset",
              "type": "bytes32"
            },
            {
              "internalType": "uint32",
              "name": "dstLzc",
              "type": "uint32"
            }
          ],
          "internalType": "struct TradeInterface.OrderDirection",
          "name": "direction",
          "type": "tuple"
        },
        {
          "components": [
            {
              "internalType": "uint96",
              "name": "amount",
              "type": "uint96"
            },
            {
              "internalType": "uint96",
              "name": "dstOutput",
              "type": "uint96"
            },
            {
              "internalType": "uint16",
              "name": "bondFee",
              "type": "uint16"
            },
            {
              "internalType": "address",
              "name": "bondAsset",
              "type": "address"
            },
            {
              "internalType": "uint96",
              "name": "bondAmount",
              "type": "uint96"
            }
          ],
          "internalType": "struct TradeInterface.OrderFunding",
          "name": "funding",
          "type": "tuple"
        },
        {
          "components": [
            {
              "internalType": "uint32",
              "name": "timestamp",
              "type": "uint32"
            },
            {
              "internalType": "uint16",
              "name": "challengeOffset",
              "type": "uint16"
            },
            {
              "internalType": "uint16",
              "name": "challengeWindow",
              "type": "uint16"
            }
          ],
          "internalType": "struct TradeInterface.OrderExpiration",
          "name": "expiration",
          "type": "tuple"
        },
        {
          "internalType": "bool",
          "name": "isMaker",
          "type": "bool"
        }
      ],
      "name": "placeOrder",
      "outputs": [],
      "stateMutability": "nonpayable",
      "type": "function"
    },
    {
      "inputs": [
        {
          "components": [
            {
              "internalType": "uint32",
              "name": "srcEid",
              "type": "uint32"
            },
            {
              "internalType": "bytes32",
              "name": "sender",
              "type": "bytes32"
            },
            {
              "internalType": "uint64",
              "name": "nonce",
              "type": "uint64"
            }
          ],
          "internalType": "struct Origin",
          "name": "_origin",
          "type": "tuple"
        },
        {
          "internalType": "bytes32",
          "name": "_guid",
          "type": "bytes32"
        },
        {
          "internalType": "bytes",
          "name": "_packet",
          "type": "bytes"
        },
        {
          "internalType": "address",
          "name": "addr",
          "type": "address"
        },
        {
          "internalType": "bytes",
          "name": "bCD",
          "type": "bytes"
        }
      ],
      "name": "pubLzReceive",
      "outputs": [],
      "stateMutability": "payable",
      "type": "function"
    },
    {
      "inputs": [
        {
          "internalType": "uint32",
          "name": "dstEid",
          "type": "uint32"
        },
        {
          "internalType": "bytes",
          "name": "_packet",
          "type": "bytes"
        },
        {
          "internalType": "bytes",
          "name": "_options",
          "type": "bytes"
        }
      ],
      "name": "pubLzSend",
      "outputs": [],
      "stateMutability": "payable",
      "type": "function"
    },
    {
      "inputs": [
        {
          "internalType": "uint32",
          "name": "_dstEid",
          "type": "uint32"
        },
        {
          "internalType": "bytes",
          "name": "_message",
          "type": "bytes"
        },
        {
          "internalType": "bytes",
          "name": "_options",
          "type": "bytes"
        },
        {
          "internalType": "bool",
          "name": "_payInLzToken",
          "type": "bool"
        }
      ],
      "name": "quote",
      "outputs": [
        {
          "components": [
            {
              "internalType": "uint256",
              "name": "nativeFee",
              "type": "uint256"
            },
            {
              "internalType": "uint256",
              "name": "lzTokenFee",
              "type": "uint256"
            }
          ],
          "internalType": "struct MessagingFee",
          "name": "fee",
          "type": "tuple"
        }
      ],
      "stateMutability": "view",
      "type": "function"
    },
    {
      "inputs": [],
      "name": "renounceOwnership",
      "outputs": [],
      "stateMutability": "nonpayable",
      "type": "function"
    },
    {
      "inputs": [
        {
          "internalType": "address",
          "name": "_delegate",
          "type": "address"
        }
      ],
      "name": "setDelegate",
      "outputs": [],
      "stateMutability": "nonpayable",
      "type": "function"
    },
    {
      "inputs": [
        {
          "components": [
            {
              "internalType": "uint32",
              "name": "eid",
              "type": "uint32"
            },
            {
              "internalType": "uint16",
              "name": "msgType",
              "type": "uint16"
            },
            {
              "internalType": "bytes",
              "name": "options",
              "type": "bytes"
            }
          ],
          "internalType": "struct EnforcedOptionParam[]",
          "name": "_enforcedOptions",
          "type": "tuple[]"
        }
      ],
      "name": "setEnforcedOptions",
      "outputs": [],
      "stateMutability": "nonpayable",
      "type": "function"
    },
    {
      "inputs": [
        {
          "internalType": "uint32",
          "name": "_eid",
          "type": "uint32"
        },
        {
          "internalType": "bytes32",
          "name": "_peer",
          "type": "bytes32"
        }
      ],
      "name": "setPeer",
      "outputs": [],
      "stateMutability": "nonpayable",
      "type": "function"
    },
    {
      "inputs": [],
      "name": "srcLzc",
      "outputs": [
        {
          "internalType": "uint32",
          "name": "",
          "type": "uint32"
        }
      ],
      "stateMutability": "view",
      "type": "function"
    },
    {
      "inputs": [
        {
          "components": [
            {
              "internalType": "address",
              "name": "srcAsset",
              "type": "address"
            },
            {
              "internalType": "bytes32",
              "name": "dstAsset",
              "type": "bytes32"
            },
            {
              "internalType": "uint32",
              "name": "dstLzc",
              "type": "uint32"
            }
          ],
          "internalType": "struct TradeInterface.OrderDirection",
          "name": "direction",
          "type": "tuple"
        },
        {
          "internalType": "uint32",
          "name": "srcIndex",
          "type": "uint32"
        }
      ],
      "name": "startChallenge",
      "outputs": [],
      "stateMutability": "payable",
      "type": "function"
    },
    {
      "inputs": [
        {
          "internalType": "address",
          "name": "newOwner",
          "type": "address"
        }
      ],
      "name": "transferOwnership",
      "outputs": [],
      "stateMutability": "nonpayable",
      "type": "function"
    },
    {
      "inputs": [
        {
          "components": [
            {
              "internalType": "address",
              "name": "srcAsset",
              "type": "address"
            },
            {
              "internalType": "bytes32",
              "name": "dstAsset",
              "type": "bytes32"
            },
            {
              "internalType": "uint32",
              "name": "dstLzc",
              "type": "uint32"
            }
          ],
          "internalType": "struct TradeInterface.OrderDirection",
          "name": "direction",
          "type": "tuple"
        },
        {
          "internalType": "uint32",
          "name": "srcIndex",
          "type": "uint32"
        }
      ],
      "name": "unwindMatch",
      "outputs": [],
      "stateMutability": "nonpayable",
      "type": "function"
    },
    {
      "stateMutability": "payable",
      "type": "receive"
    }
  ],
  "bytecode": "0x60a0604052346200005d576200001f620000186200013d565b91620001b6565b604051614b2a6200041d8239608051818181610bb101528181611ada01528181613836015281816140dc0152818161429401526148640152614b2a90f35b600080fd5b634e487b7160e01b600052604160045260246000fd5b90601f01601f191681019081106001600160401b038211176200009a57604052565b62000062565b90620000b7620000af60405190565b928362000078565b565b6001600160a01b031690565b90565b6001600160a01b0381165b036200005d57565b90505190620000b782620000c8565b63ffffffff8116620000d3565b90505190620000b782620000ea565b90916060828403126200005d57620000c5620001238484620000db565b936040620001358260208701620000db565b9401620000f7565b6200016062004f47803803806200015481620000a0565b92833981019062000106565b909192565b9063ffffffff905b9181191691161790565b6200018d620000c5620000c59263ffffffff1690565b63ffffffff1690565b90620001aa620000c5620001b29262000177565b825462000165565b9055565b620001c990620000b793923391620001d1565b600462000196565b620000b7928392839283928392909162000265565b620000c590620000b9906001600160a01b031682565b620000c590620001e6565b620000c590620001fc565b620000b9620000c5620000c59290565b620000c59062000212565b516001600160a01b031690565b60009103126200005d57565b6001600160a01b03909116815260200190565b6040513d6000823e3d90fd5b620002756200027b929362000331565b62000207565b6080526200028e620000b9600062000222565b6001600160a01b038216146200031b57620002ae6200027560806200022d565b803b156200005d57620002e6600092918392620002ca60405190565b948593849283919063ca5eb5e160e01b83526004830162000246565b03925af180156200031557620002f95750565b620000b79060006200030c818362000078565b8101906200023a565b62000259565b604051632d618d8160e21b8152600490fd5b0390fd5b6200033d600062000222565b6001600160a01b0381166001600160a01b03831614620003635750620000b790620003c2565b6200032d906200037260405190565b631e4fbdf760e01b81529182916004830162000246565b546001600160a01b031690565b906001600160a01b03906200016d565b90620003ba620000c5620001b29262000207565b825462000396565b620003ea620003e3620003d6600062000389565b62000275846000620003a6565b9162000207565b907f8be0079c531659141344cd1fd0a4f28419497f9722a3daafe3b4186f6b6457e06200041660405190565b600090a356fe6080604052600436101561001b575b361561001957600080fd5b005b60003560e01c80628f96e01461027a5780630e11994d1461027557806313137d651461027057806317442b701461026b5780631e90b7401461026657806322ce85f014610261578063231f48931461025c5780633400288b146102575780633a613817146102525780633e13e1221461024d5780634394bd82146102485780635535d4611461024357806356359b171461023e5780635e280f11146102395780635f10bdc51461023457806361f49ed61461022f578063634d45b21461022a5780636faee6cb14610225578063715018a61461022057806374b218601461021b5780637d25a05e146102165780637ffe9d921461021157806382413eac1461020c5780638da5cb5b14610207578063b651e05014610202578063b77bcbf6146101fd578063b98bd070146101f8578063bb0b6a53146101f3578063bc70b354146101ee578063c709a698146101e9578063ca5eb5e1146101e4578063cdb14939146101df578063eba00707146101da578063ee8c8364146101d5578063f2fde38b146101d0578063fc279b73146101cb578063ff6fd4ae146101c65763ff7bd03d0361000e57611543565b611516565b6114eb565b6114c2565b611497565b611377565b6112cf565b611265565b611237565b611218565b6111da565b611182565b6110fc565b6110c1565b610fc7565b610f96565b610f39565b610f03565b610ee7565b610e41565b610e22565b610d9f565b610cf0565b610c9c565b610b98565b610b3d565b610b15565b6108df565b6108cb565b6108b7565b61089e565b610856565b61081e565b6106ed565b610687565b610662565b610590565b61045b565b6001600160a01b031690565b90565b6001600160a01b0381165b036102a057565b600080fd5b905035906102b28261028e565b565b80610299565b905035906102b2826102b4565b90916060828403126102a05761028b6102e084846102a5565b9360406102f082602087016102ba565b94016102ba565b9052565b80516001600160601b031682526102b2919060809081906020818101516001600160601b03169085015260408181015161ffff169085015261034d606082015160608601906001600160a01b03169052565b01516001600160601b0316910152565b805163ffffffff1682526102b29190604090819060208181015161ffff1690850152015161ffff16910152565b80516001600160a01b031682526102b29190610140906080906103b5602082015160208601906102fb565b6103c7604082015160c086019061035d565b60608101516001600160601b03166101208501525b01511515910152565b906103f3816101609361038a565b0190565b90610417610410610406845190565b8084529260200190565b9260200190565b9060005b8181106104285750505090565b90919261044261043b60019286516103e5565b9460200190565b92910161041b565b602080825261028b929101906103f7565b346102a0576104836104776104713660046102c7565b91611822565b6040519182918261044a565b0390f35b634e487b7160e01b600052604160045260246000fd5b90601f01601f191681019081106001600160401b038211176104be57604052565b610487565b906102b26104d060405190565b928361049d565b63ffffffff8116610299565b905035906102b2826104d7565b91906060838203126102a05761053190604061050c60606104c3565b9461051783826102a5565b865261052683602083016102ba565b6020870152016104e3565b6040830152565b6001600160601b038116610299565b905035906102b282610538565b60c0818303126102a05761056882826104f0565b9261028b61057984606085016104e3565b9360a061058982608087016102a5565b9401610547565b346102a0576105ac6105a3366004610554565b929190916119bd565b604051005b908160609103126102a05790565b909182601f830112156102a0578135916001600160401b0383116102a05760200192600183028401116102a057565b60e0818303126102a05761060282826105b1565b9261061083606084016102ba565b9260808301356001600160401b0381116102a057816106309185016105bf565b9290936106408360a083016102a5565b9260c08201356001600160401b0381116102a05761065e92016105bf565b9091565b6105ac6106703660046105ee565b95949094939193611ace565b60009103126102a057565b346102a05761069736600461067c565b61069f611bd0565b906104836106ac60405190565b928392836001600160401b0391821681529116602082015260400190565b91906080838203126102a05761028b9060606106e682866104f0565b94016104e3565b346102a0576105ac6107003660046106ca565b90611cee565b61ffff8116610299565b905035906102b282610706565b919060a0838203126102a05761078290608061073960a06104c3565b946107448382610547565b86526107538360208301610547565b60208701526107658360408301610710565b604087015261077783606083016102a5565b606087015201610547565b6080830152565b91906060838203126102a0576105319060406107a560606104c3565b946107b083826104e3565b86526107bf8360208301610710565b602087015201610710565b801515610299565b905035906102b2826107ca565b610180818303126102a0576107f482826104f0565b9261028b610805846060850161071d565b93610160610817826101008701610789565b94016107d2565b346102a0576105ac6108313660046107df565b929190916121cd565b91906040838203126102a05761028b9060206102f082866102ba565b346102a05761048361087261086c36600461083a565b90612374565b6040519182918290815260200190565b91906040838203126102a05761028b9060206102f082866104e3565b346102a0576105ac6108b1366004610882565b906123af565b6105ac6108c53660046106ca565b906124fb565b6105ac6108d93660046106ca565b906126b5565b346102a0576104836108726108f536600461083a565b90612785565b91906040838203126102a05761028b90602061091782866104e3565b9401610710565b61093161028b61028b9263ffffffff1690565b63ffffffff1690565b906109449061091e565b600052602052604060002090565b61096361028b61028b9261ffff1690565b61ffff1690565b9061094490610952565b634e487b7160e01b600052600060045260246000fd5b634e487b7160e01b600052602260045260246000fd5b90600160028304921680156109c0575b60208310146109bb57565b61098a565b91607f16916109b0565b805460009392916109e76109dd836109a0565b8085529360200190565b9160018116908115610a395750600114610a0057505050565b610a139192939450600052602060002090565b916000925b818410610a255750500190565b805484840152602090930192600101610a18565b92949550505060ff1916825215156020020190565b9061028b916109ca565b906102b2610a7292610a6960405190565b93848092610a4e565b038361049d565b90600010610a8a5761028b90610a58565b610974565b610aa861028b92610aa3600093600261093a565b61096a565b610a79565b60005b838110610ac05750506000910152565b8181015183820152602001610ab0565b610af1610afa6020936103f393610ae5815190565b80835293849260200190565b95869101610aad565b601f01601f191690565b602080825261028b92910190610ad0565b346102a057610483610b31610b2b3660046108fb565b90610a8f565b60405191829182610b04565b346102a057610483610872610b533660046106ca565b9061279e565b61028b9061027f906001600160a01b031682565b61028b90610b59565b61028b90610b6d565b6102f790610b76565b6020810192916102b29190610b7f565b346102a057610ba836600461067c565b604051806104837f000000000000000000000000000000000000000000000000000000000000000082610b88565b6080818303126102a057610bea82826102a5565b9261028b610bfb84602085016102ba565b9360606102f082604087016102ba565b805163ffffffff1682526102b2919060e09081906020818101516001600160601b0316908501526040818101516001600160601b031690850152610c5460608201516060860152565b6080818101516001600160a01b03169085015260a0818101516001600160601b03169085015260c0818101511515908501526103dc565b610100810192916102b29190610c0b565b346102a057610483610cbb610cb2366004610bd6565b92919091612999565b60405191829182610c8b565b90916060828403126102a05761028b610ce084846102a5565b9360406102f082602087016102a5565b6105ac610cfe366004610cc7565b91612a13565b906020828203126102a05781356001600160401b0381116102a05761065e92016105bf565b805163ffffffff1682526102b291906080908190610d4c60208201516020860152565b6040818101516001600160a01b0316908501526060818101516001600160a01b0316908501525b0151910152565b9160a06102b2929493610d9560c08201966000830190610d29565b019061ffff169052565b346102a057610db8610db2366004610d04565b90612acf565b90610483610dc560405190565b92839283610d7a565b9091610100828403126102a057610de583836104f0565b92610df381606085016104e3565b92610e0182608083016104e3565b9261028b610e128460a085016102ba565b9360e06105898260c08701610547565b346102a0576105ac610e35366004610dce565b94939093929192612e1a565b346102a057610e5136600461067c565b6105ac61307b565b919060a0838203126102a057610782906080610e7560a06104c3565b94610e8083826104e3565b8652610e8f83602083016102ba565b6020870152610ea183604083016102a5565b6040870152610eb383606083016102a5565b6060870152016102ba565b909160e0828403126102a05761028b610ed78484610e59565b9360c06102f08260a08701610710565b346102a057610483610b31610efd366004610ebe565b916130ae565b346102a057610483610f1f610f19366004610882565b906130d9565b604051918291826001600160401b03909116815260200190565b346102a0576105ac610f4c3660046106ca565b906132cd565b9060a0828203126102a057610f6781836105b1565b9260608301356001600160401b0381116102a05782610f8d60809461028b9387016105bf565b949095016102a5565b346102a057610483610fb5610fac366004610f52565b92919091613522565b60405191829182901515815260200190565b346102a057610fd736600461067c565b610483610fe2613541565b604051918291826001600160a01b03909116815260200190565b6001600160401b0381116104be57602090601f01601f19160190565b90826000939282370152565b9092919261103961103482610ffc565b6104c3565b93818552818301116102a0576102b2916020850190611018565b9080601f830112156102a05781602061028b93359101611024565b916060838303126102a05761108382846104e3565b9260208101356001600160401b0381116102a057836110a3918301611053565b9260408201356001600160401b0381116102a05761065e92016105bf565b6105ac6110cf36600461106e565b92919091613556565b61028b916008021c610931565b9061028b91546110d8565b61028b600060046110e5565b346102a05761110c36600461067c565b6104836111176110f0565b6040519182918263ffffffff909116815260200190565b909182601f830112156102a0578135916001600160401b0383116102a05760200192602083028401116102a057565b906020828203126102a05781356001600160401b0381116102a05761065e920161112e565b346102a0576105ac61119536600461115d565b90613694565b906020828203126102a05761028b916104e3565b61028b916008021c81565b9061028b91546111af565b60006111d561028b92600161093a565b6111ba565b346102a0576104836108726111f036600461119b565b6111c5565b916060838303126102a05761120a82846104e3565b926110a38360208301610710565b346102a057610483610b3161122e3660046111f5565b9291909161374b565b6105ac6112453660046105ee565b95949094939193613816565b906020828203126102a05761028b916102a5565b346102a0576105ac611278366004611251565b6138c5565b80516001600160601b031682526020808201516001600160a01b0316908301526102b2919060609081906040818101516001600160a01b0316908501526103dc565b6080810192916102b2919061127d565b346102a0576104836112ee6112e5366004610bd6565b92919091613971565b604051918291826112bf565b6080818303126102a05761130e82826104e3565b9260208201356001600160401b0381116102a0578361132e918401611053565b926040830135906001600160401b0382116102a05760606108178261028b948701611053565b805182526102b291906020908190610d73565b6040810192916102b29190611354565b346102a05761048361139661138d3660046112fa565b929190916139b1565b60405191829182611367565b90916060828403126102a05761028b6113bb84846102ba565b9360406113cb82602087016102ba565b94016102a5565b61028b61028b61028b9290565b90610944906113d2565b90610944565b9061094490610b76565b61028b9061027f565b61028b90546113f9565b61028b9081565b61028b905461140c565b61028b90610963565b61028b905461141d565b61144d92916114436114489260036113df565b6113e9565b6113ef565b61145681611402565b9161028b600261146860018501611413565b9301611426565b6001600160a01b0390911681526060810193926102b2929091604091610d95905b6020830152565b346102a0576104836114b36114ad3660046113a2565b91611430565b6040519193919384938461146f565b346102a0576105ac6114d5366004611251565b613a30565b610160810192916102b2919061038a565b346102a05761048361150a611501366004610bd6565b92919091613a8b565b604051918291826114da565b346102a0576105ac6115293660046106ca565b90613afd565b906060828203126102a05761028b916105b1565b346102a057610483610fb561155936600461152f565b613c9c565b6001600160401b0381116104be5760208091020190565b906115826110348361155e565b918252565b61028b905b6001600160601b031690565b61028b9054611587565b61028b9060601c61158c565b61028b90546115a2565b61028b9060c01c610963565b61028b90546115b8565b61028b9060a01c61158c565b61028b90546115ce565b61028b60a06104c3565b906102b261167060016115ff6115e4565b9461161961160c82611598565b6001600160601b03168752565b611635611625826115ae565b6001600160601b03166020880152565b61164c611641826115c4565b61ffff166040880152565b61166a61165a838301611402565b6001600160a01b03166060880152565b016115da565b6001600160601b03166080840152565b61028b90610931565b61028b9054611680565b61028b9060201c610963565b61028b9054611693565b61028b9060301c610963565b61028b90546116a9565b61028b60606104c3565b906102b261171460006116da6116bf565b946116f56116e9838301611689565b63ffffffff1687840152565b61170e61170383830161169f565b61ffff166020880152565b016116b5565b61ffff166040840152565b61028b9060601c5b60ff1690565b61028b905461171f565b906102b26117b260046117486115e4565b9461176261175582611402565b6001600160a01b03168752565b611778611771600183016115ee565b6020880152565b61178e611787600383016116c9565b6040880152565b6117ac61179c838301611598565b6001600160601b03166060880152565b0161172d565b15156080840152565b61028b90611737565b906117cd825490565b6117d681611575565b926117ea6020850191600052602060002090565b6000915b8383106117fb5750505050565b6005602060019261180b856117bb565b8152019201920191906117ee565b61028b906117c4565b6118429061144860039361144361028b9661183b606090565b50866113df565b01611819565b61028b61028b61028b9263ffffffff1690565b9061094490611848565b61028b61028b61028b926001600160601b031690565b61028b60806104c3565b906001600160601b03905b9181191691161790565b61158c61028b61028b926001600160601b031690565b906118c061028b6118c79261189a565b8254611885565b9055565b906bffffffffffffffffffffffff199060601b611890565b906118f361028b6118c792610b76565b82546118cb565b906001600160a01b0390611890565b9061191961028b6118c792610b76565b82546118fa565b9060ff60a01b9060a01b611890565b9061193f61028b6118c792151590565b8254611920565b6102b291906119ad906060906001906119878161197361196d88516001600160601b031690565b826118b0565b60208701516001600160a01b0316906118e3565b01926119a66119a060408301516001600160a01b031690565b85611909565b0151151590565b9061192f565b906102b291611946565b906005611a9792611a836102b29695611a59611a1b61028b6000611a016119f56119ee60408a015163ffffffff1690565b600361185b565b60208901515b906113e9565b960195611a1587516001600160a01b031690565b906113ef565b9382611a54611a3183516001600160a01b031690565b92611a47611a3e8d611865565b80953390613cc9565b516001600160a01b031690565b613ce7565b611a73611a6461187b565b6001600160601b039098168852565b6001600160a01b03166020870152565b336040860152600060608601525b0161185b565b6119b3565b3561028b816104d7565b3561028b816102b4565b63ffffffff90911681526040810192916102b29160200152565b0152565b96959493929190611afe7f0000000000000000000000000000000000000000000000000000000000000000610b76565b611b10335b916001600160a01b031690565b03611b8b5787611b27611b2282611a9c565b613cfa565b986020820199611b40611b3c61028b8d611aa6565b9190565b03611b5157506102b2979850613d4e565b611b64611b5e8b92611a9c565b91611aa6565b90611b87611b7160405190565b63309afaf360e21b815292839260048401611ab0565b0390fd5b6040516391ac5e4f60e01b8152336004820152602490fd5b611bb061028b61028b9290565b6001600160401b031690565b61028b6001611ba3565b61028b6002611ba3565b611bd8611bbc565b9061028b611bc6565b634e487b7160e01b600052603260045260246000fd5b8054821015611c1a57611c11600591600052602060002090565b91020190600090565b611be1565b15611c2657565b60405162461bcd60e51b815260206004820152600b60248201526a10b7b7363ca9b2b73232b960a91b6044820152606490fd5b15611c6057565b60405162461bcd60e51b815260206004820152600f60248201526e08585b1c9958591e53585d18da1959608a1b6044820152606490fd5b61158c61028b61028b9290565b611ce26102b294611cd5606094989795611cce608086019a60008701906001600160a01b03169052565b6020850152565b63ffffffff166040830152565b019063ffffffff169052565b60408101805163ffffffff16611d0590600361185b565b836020840191611d13835190565b611d1c916113e9565b84516001600160a01b0316611d30916113ef565b60030190611d3d91611bf7565b5092611d4884611402565b93611d5d336001600160a01b03871614611c1f565b611d6960048201611598565b600190910190611d7882611598565b6001600160601b0316906001600160601b031610611d9590611c59565b611d9f6000611c97565b611da8916118b0565b516001600160a01b03169051915163ffffffff1692611dc690610b76565b93611dd060405190565b938493611ddd9385611ca4565b037f8e4921adf508bc3c6ae4964a673a48952d473caa0ea2f97ba668bbd9d71e5e7891a2565b634e487b7160e01b600052601160045260246000fd5b611e2a9061ffff165b9161ffff1690565b019061ffff8211611e3757565b611e03565b611e4d61028b61028b9261ffff1690565b62ffffff1690565b611e4d61028b61028b9290565b15611e6957565b60405162461bcd60e51b815260206004820152600a602482015269216d617857696e646f7760b01b6044820152606490fd5b61093161028b61028b9290565b906bffffffffffffffffffffffff60601b9060601b611890565b90611ed261028b6118c79261189a565b8254611ea8565b9061ffff60c01b9060c01b611890565b90611ef961028b6118c792610952565b8254611ed9565b906001600160a01b03199060a01b611890565b90611f2361028b6118c79261189a565b8254611f00565b6102b29190611fa490608090600190611f7d81611f5161196d88516001600160601b031690565b611f6e611f6860208901516001600160601b031690565b82611ec2565b604087015161ffff1690611ee9565b0192611f966119a060608301516001600160a01b031690565b01516001600160601b031690565b90611f13565b906102b291611f2a565b9063ffffffff90611890565b90611fd061028b6118c79261091e565b8254611fb4565b9065ffff000000009060201b611890565b90611ff861028b6118c792610952565b8254611fd7565b9067ffff0000000000009060301b611890565b9061202261028b6118c792610952565b8254611fff565b6102b29161206c9060409061204b612045825163ffffffff1690565b85611fc0565b61206361205d602083015161ffff1690565b85611fe8565b015161ffff1690565b90612012565b906102b291612029565b9060ff60601b9060601b611890565b9061209b61028b6118c792151590565b825461207c565b90612118608060046102b2946120cb6120c560008701516001600160a01b031690565b82611909565b6120e26120d9602087015190565b60018301611faa565b6120f96120f0604087015190565b60038301612072565b01926119a661211260608301516001600160601b031690565b856118b0565b9061208b565b9190610a8a576102b2916120a2565b90815491680100000000000000008310156104be57826121559160016102b295018155611bf7565b9061211e565b9593919897969492909861010087019960008801612180916001600160a01b03169052565b602087015263ffffffff16604086015263ffffffff1660608501526001600160601b031660808401526001600160601b031660a083015261ffff1660c082015260e0016102b29115159052565b60208301519293919261ffff16604085015161ffff166121ec91611e19565b6121f8620186a0611e55565b9061220290611e3c565b1061220c90611e62565b604081019161221f835163ffffffff1690565b61222a90600361185b565b916020810192612238845190565b612241916113e9565b81516001600160a01b0316612255916113ef565b6003016122626000611c97565b61226a6115e4565b338152976020890188905260408901526001600160601b031660608801528215156080880152805461229b90611e9b565b966122a59161212d565b516001600160a01b03169151925163ffffffff16936122cb81516001600160601b031690565b906122e060208201516001600160601b031690565b60409091015161ffff16916122f433610b76565b976122fe60405190565b97889761230b978961215b565b037f50731501f4a05444ea23eb12b6d8ca23751b074c154f9cfeba47d9c37fb42e2091a2565b81810292918115918404141715611e3757565b61028b6127106113d2565b634e487b7160e01b600052601260045260246000fd5b811561236f570490565b61234f565b61238a9061028b92612384600090565b50612331565b612392612344565b90612365565b906102b2916123a5613f4a565b906102b291613f96565b906102b291612398565b61028b9060081c611727565b61028b90546123b9565b156123d657565b60405162461bcd60e51b815260206004820152601c60248201527f416c72656164792073746172746564206f7220636f6d706c65746564000000006044820152606490fd5b61096361028b61028b9290565b906109449061241b565b61028b90610a58565b6124509063ffffffff165b9163ffffffff1690565b029063ffffffff8216918203611e3757565b61093161028b61028b9261ffff1690565b6124829063ffffffff16612446565b019063ffffffff8211611e3757565b61028b9060801c61158c565b61028b9054612491565b909594926102b2946124e1611aca926124da6080966124d360a088019c600089019063ffffffff169052565b6020870152565b6040850152565b6001600160601b03166060830152565b61028b60406104c3565b61267f9161255d61028b6040840192600461254861028b6125236119ee885163ffffffff1690565b97611a156000612539602084019b6119fb8d5190565b9201516001600160a01b031690565b6125558360038301611bf7565b50500161185b565b91612579612574612570600386016123c5565b1590565b6123cf565b612634612594612589600161241b565b935163ffffffff1690565b936125b26125ad60016125a888600261093a565b612428565b612432565b9261262860016125f36125ee60008601986125e86125e26125d28c611689565b6125dc6010611e9b565b9061243b565b91612462565b90612473565b935190565b930161261061260a61260483611413565b9861249d565b91611413565b9061261a60405190565b9788956020870195866124a7565b9081038252038361049d565b61264a6000612645818486886140bd565b015190565b9161265b6126566124f1565b938452565b612668611cce60006113d2565b61267961267433610b76565b610b76565b93614242565b50565b61028b9060a01c611727565b61028b9054612682565b61172761028b61028b9290565b61096361028b61028b9260ff1690565b816126fc60016126f661028b61267f966005611a9161028b6119ee99611a1560006125396126ec604085019e8f5163ffffffff1690565b60208501516119fb565b0161268e565b156127655761273e6127196125896127146002612698565b6126a5565b926125e86125e26127336125ad60016125a889600261093a565b946125dc6010611e9b565b9061263461274b60405190565b63ffffffff90931660208401908152839060408201612628565b61273e6127196125896127146003612698565b91908203918211611e3757565b61279861238a8261028b94612384600090565b90612778565b6126456000809261028b946127b1600090565b506127eb61028b6040840192600461254861028b6127d66119ee885163ffffffff1690565b97611a158a612539602084019b6119fb8d5190565b6127fd612574612570600384016123c5565b61284061280d612589600161241b565b916128216125ad60016125a886600261093a565b9461262860016125f36125ee8a8601986125e86125e26125d28c611689565b6140bd565b61028b6101006104c3565b612858612845565b9060008252602080808080808080890160008152016000815201600081520160005b81520160005b81520160005b8152016000905250565b905250565b61028b612850565b61028b9060201c61158c565b61028b905461289d565b61028b90611727565b61028b90546128b3565b906102b261298760036128d7612845565b946128ee6128e482611689565b63ffffffff168752565b6128fa611625826128a9565b6129166129068261249d565b6001600160601b03166040880152565b61292c61292560018301611413565b6060880152565b61294b61293b60028301611402565b6001600160a01b03166080880152565b61296a61295a600283016115da565b6001600160601b031660a0880152565b6129816129788383016128bc565b151560c0880152565b016123c5565b151560e0840152565b61028b906128c6565b6129be60049161144861028b96946114436129c4976129b6612895565b5060036113df565b016113df565b612990565b905051906102b2826107ca565b906020828203126102a05761028b916129c9565b6001600160a01b0390911681526040810192916102b29160200152565b6040513d6000823e3d90fd5b91602091612a26612674612a5195610b76565b906000612a3260405190565b809681958294612a4663095ea7b360e01b90565b8452600484016129ea565b03925af18015612a8a57612a625750565b61267f9060203d602011612a83575b612a7b818361049d565b8101906129d6565b503d612a71565b612a07565b612a976115e4565b90600082526020808080808601600061287a565b61028b612a8f565b919060c0838203126102a05761028b9060a06109178286610e59565b61065e91612adb612aab565b506000612ae6612aab565b5050810190612ab3565b15612af757565b60405162461bcd60e51b815260206004820152601f60248201527f4f726465722068617320616c7265616479206265656e20736574746c65642e006044820152606490fd5b15612b4357565b60405162461bcd60e51b815260206004820152604b60248201527f5061727469616c2066696c6c7320617265206e6f7420616c6c6f7765642e205360448201527f6f75726365207175616e74697479206d757374206d6174636820746865206f7260648201526a3232b91030b6b7bab73a1760a91b608482015260a490fd5b906fffffffffffffffffffffffff000000009060201b611890565b90612bed61028b6118c79261189a565b8254612bc2565b906bffffffffffffffffffffffff60801b9060801b611890565b90612c1e61028b6118c79261189a565b8254612bf4565b9060001990611890565b90612c3d61028b6118c79290565b8254612c25565b9060ff90611890565b90612c5d61028b6118c792151590565b8254612c44565b9061ff009060081b611890565b90612c8161028b6118c792151590565b8254612c64565b6102b29190612d439060e090600390612ce381612cb2612cac885163ffffffff1690565b82611fc0565b612ccf612cc960208901516001600160601b031690565b82612bdd565b60408701516001600160601b031690612c0e565b612cfa612cf1606087015190565b60018301612c2f565b612d2b60028201612d186120c560808901516001600160a01b031690565b60a08701516001600160601b0316611fa4565b01926119a6612d3d60c0830151151590565b85612c4d565b90612c71565b906102b291612c88565b6001600160601b03908116911601906001600160601b038211611e3757565b15612d7957565b60405162461bcd60e51b815260206004820152600f60248201526e53616e69747920636865636b20543360881b6044820152606490fd5b949290979695939160e086019860008701612dd2916001600160a01b03169052565b602086015263ffffffff16604085015263ffffffff16606084015263ffffffff1660808301526001600160601b031660a082015260c0016102b2916001600160601b03169052565b9193949094604083019386612e33865163ffffffff1690565b612e3e90600361185b565b946020810195612e4c875190565b612e55916113e9565b81516001600160a01b0316612e69916113ef565b9260038401908984612e7b8185611bf7565b50966004880193612e8b85611598565b6000978891612e9983611c97565b612eac916001600160601b031614612af0565b612eba8b8301600101611598565b6001600160601b038d16906001600160601b031614612ed890612b3c565b019887612eec8b516001600160a01b031690565b9101612ef790611402565b612f008c611865565b90612f0a92613cc9565b612f1343611c97565b90612f1c612845565b63ffffffff95909516888601526001600160601b038b811660208701528c16604086015260608501523360808501526001600160601b031660a084015285151560c0840181905260e0840152612f75919060040161185b565b90612f7f91612d49565b85612f8982611598565b90612f9391612d53565b612f9c916118b0565b612fa68382611bf7565b50600401612fb390611598565b92612fbd91611bf7565b5060010101612fcb90611598565b6001600160601b0316906001600160601b031614612fe890612d72565b516001600160a01b03169251935163ffffffff169461300633610b76565b9661301060405190565b96879661301d9688612db0565b037f8fc36da0630939b64f05f2d162aa2a0c2cd4f2e2690134ae79a1f4638e27756e91a2565b61304b613f4a565b6102b2613069565b61027f61028b61028b9290565b61028b90613053565b6102b26130766000613060565b614385565b6102b2613043565b60c090611aca6102b294969593966130a360e08401986000850190610d29565b61ffff1660a0830152565b61028b91906130cd6130bf60405190565b948593602085019384613083565b9081038252038261049d565b50506130e3600090565b5061028b6000611ba3565b61158c61028b61028b9261ffff1690565b1561310657565b60405162461bcd60e51b815260206004820152601060248201526f0853585d18da081a5cc818db1bdcd95960821b6044820152606490fd5b1561314557565b60405162461bcd60e51b815260206004820152602160248201527f4d7573742077616974206265666f726520636f6e6669726d696e67206d6174636044820152600d60fb1b6064820152608490fd5b61028b61028b61028b9261ffff1690565b156131ac57565b60405162461bcd60e51b815260206004820152600f60248201526e53616e69747920436865636b20543160881b6044820152606490fd5b91908201809211611e3757565b156131f757565b60405162461bcd60e51b815260206004820152600f60248201526e29b0b734ba3c9021b432b1b5902a1960891b6044820152606490fd5b1561323557565b60405162461bcd60e51b815260206004820152600f60248201526e53616e69747920436865636b20543560881b6044820152606490fd5b91946132c0610d95929897956132b360a0966132a66102b29a61329f60c08a019e60008b01906001600160a01b03169052565b6020890152565b63ffffffff166040870152565b63ffffffff166060850152565b63ffffffff166080830152565b604081016132e26119ee825163ffffffff1690565b61330e61028b60006132fa60208701946119fb865190565b950194611a1586516001600160a01b031690565b61333261028b86600461332b6133278360038801611bf7565b5090565b940161185b565b6002810194613379613374613346886115da565b61336861336361336e600060038a0101936133686133638661169f565b6130ee565b90612d53565b926116b5565b611865565b92600383019361338b612570866128bc565b8061350b575b61339a906130ff565b43116133a59061313e565b60018101966133b388611598565b6133bc90611865565b946133c6896115c4565b956133d087613194565b6133da8183612785565b906133e59083612374565b969a6133f08c6128a9565b906133fa90611598565b6001600160601b0316906001600160601b031614613417906131a5565b61342190876131e3565b811461342c906131f0565b61343860048501611598565b61344190611865565b1461344b9061322e565b600161345691612c4d565b61345f90611402565b809361347284516001600160a01b031690565b9161347c92613ce7565b6002018261348982611402565b91613493906115da565b61349c90611865565b906134a692613ce7565b516001600160a01b03169251935163ffffffff16946134c490611689565b906134ce90610b76565b956134d860405190565b9586956134e5958761326c565b037fdb92de3ed9a0eec385beabd5b5b2a8197ac40a1ca5fdd58b107f9c32b364913b91a2565b5061339a61351b612570876123c5565b9050613391565b50505061352d600090565b5061353d611b0361027f30610b76565b1490565b61028b6000611402565b61028b913691611024565b9161267f93916126796135ac61357c600061264581613575898961354b565b878b6140bd565b9461358d6135886124f1565b968752565b61359a61177160006113d2565b6135a661267430610b76565b9461354b565b92610b76565b906102b2916135bf613f4a565b613682565b9190916060818403126102a0576135db60606104c3565b926135e681836104e3565b84526135f58160208401610710565b602085015260408201356001600160401b0381116102a0576105319201611053565b9291906136266110348261155e565b93818552602080860192028101918383116102a05781905b83821061364c575050505050565b81356001600160401b0381116102a05760209161366c87849387016135c4565b81520191019061363e565b61028b913691613617565b6102b29161368f91613677565b61462d565b906102b2916135b2565b909392938483116102a05784116102a0578101920390565b6103f36136ce926020926136c8815190565b94859290565b93849101610aad565b90916103f39083908093611018565b6136f49061028b94926136b6565b916136d7565b906102b29193929361262861370e60405190565b9586936020850193846136e6565b9190610afa81613733816103f39560209181520190565b8095611018565b602080825261028b9391019161371c565b906125ad61376c919593949561375f606090565b50610aa36002948561093a565b90613775825190565b613782611b3c60006113d2565b1461380a578461379260006113d2565b8114613801576137a4611b3c836113d2565b10156137cf57505050611b876137b960405190565b639a6d49cd60e01b81529283926004840161373a565b9383816137f56137fb9495976137f06137eb8461028b9a61354b565b614716565b6113d2565b9161369e565b916136fa565b50509150915090565b50509161028b9161354b565b906102b2969594939291613d4e565b6102b290613831613f4a565b61385a7f0000000000000000000000000000000000000000000000000000000000000000610b76565b803b156102a05761389c60009291839261387360405190565b948593849283919063ca5eb5e160e01b8352600483016001600160a01b03909116815260200190565b03925af18015612a8a576138ad5750565b6102b29060006138bd818361049d565b81019061067c565b6102b290613825565b6138d661187b565b9060008252602080808085016000612880565b61028b6138ce565b61028b9060601c61027f565b61028b90546138f1565b906102b261395f600161391861187b565b9461392561160c82611598565b613941613931826138fd565b6001600160a01b03166020880152565b6126f661394f838301611402565b6001600160a01b03166040880152565b15156060840152565b61028b90613907565b6129be60059161144861028b969461144361398e976129b66138e9565b613968565b61399b6124f1565b906000825260006020830152565b61028b613993565b9061028b9392916139c06139a9565b506140bd565b6102b2906139d2613f4a565b6139dc6000613060565b6001600160a01b0381166001600160a01b038316146139ff57506102b290614385565b611b8790613a0c60405190565b631e4fbdf760e01b8152918291600483016001600160a01b03909116815260200190565b6102b2906139c6565b613a416116bf565b90600082526020808084016000612886565b61028b613a39565b613a636115e4565b90600082526020808080808601613a78612aab565b815201612880613a53565b61028b613a5b565b613aa860039161144861028b9694611443613aae9761183b613a83565b01611bf7565b506117bb565b909594926102b294613af0611ce292613ae36080966124d360a088019c60008901906001600160a01b03169052565b63ffffffff166040850152565b63ffffffff166060830152565b60408101613b126119ee825163ffffffff1690565b613b3861028b613b2860208601936119fb855190565b85516001600160a01b0316611a15565b613b5161028b86600461332b6133278360038801611bf7565b936003850190613b63612570836128bc565b80613c85575b613b72906130ff565b600091613b7e83611c97565b613b8d908585016001016118b0565b6001613b9891612c4d565b6001830192826001850192613bac84611402565b60028a0194613bba86611402565b90613bc4906115da565b613bcd90611865565b90613bd792613ce7565b01938380613bec87516001600160a01b031690565b9301613bf790611402565b9101613c0290611598565b613c0b90611865565b90613c1592613ce7565b613c1e90611402565b91516001600160a01b03169251935163ffffffff169401613c3e90611689565b90613c4890610b76565b94613c5260405190565b948594613c5f9486613ab4565b037fbde2e047902f4aa13192897f7500d542a8847ccdaf0eb977c9105232199c744091a2565b50613b72613c95612570846123c5565b9050613b69565b61353d611b3c61028b6020613cc2613cbd613cb687611a9c565b600161093a565b611413565b9401611aa6565b90613cd76102b29392610b76565b90613ce130610b76565b9161479e565b90613cf56102b29392610b76565b6147e8565b613d08613cbd82600161093a565b90613d1661028b60006113d2565b8214613d20575090565b611b8790613d2d60405190565b63f6ff4fb760e01b81529182916004830163ffffffff909116815260200190565b95505060009350613d6d925090613d6491612acf565b92909301611a9c565b600390613d7a818361185b565b613d8a60208601916119fb835190565b91613da761028b6040880194611a1586516001600160a01b031690565b869490613de561028b6004613dcf613327868601613dc98c5163ffffffff1690565b90611bf7565b9301613ddf895163ffffffff1690565b9061185b565b600197613df18961241b565b61ffff821603613ee457505050613e3561398e94611a15613e27613e4198966119fb613e22613ddf9860059861185b565b915190565b91516001600160a01b031690565b01915163ffffffff1690565b91613e5383516001600160601b031690565b613e6a613e6461028b608085015190565b91611865565b149081613ead575b5080613e8f575b613e81575050565b60606102b292019015159052565b5060408201516001600160a01b0316613ea733611b03565b14613e79565b9050613edd611b0361027f6060613ece60208801516001600160a01b031690565b9401516001600160a01b031690565b1438613e72565b935094935096509350613efa611e22600261241b565b14613f07575b5050505050565b51613f4094613f3a916001600160a01b031690613f34613374600088613f2c85611402565b940101611598565b91613ce7565b01612c71565b3880808080613f00565b613f52613541565b3390613f5d82611b03565b03613f655750565b611b8790613f7260405190565b63118cdaa760e01b8152918291600483016001600160a01b03909116815260200190565b907f238399d427b947898edb290f5ff0f9109849b1c3ba196a42e35f00c50a54b98b91613fcd82613fc883600161093a565b612c2f565b613fe2613fd960405190565b92839283611ab0565b0390a1565b905051906102b2826102b4565b91906040838203126102a05761149090602061401060406104c3565b9461401b8382613fe7565b865201613fe7565b906040828203126102a05761028b91613ff4565b805163ffffffff1682529061028b9060808061408661407460a0850161406260208901516020880152565b60408801518682036040880152610ad0565b60608701518582036060870152610ad0565b9401511515910152565b929160206140ad6102b29360408701908782036000890152614037565b9401906001600160a01b03169052565b9061413861416a946117b26040956140d36139a9565b506141316141007f0000000000000000000000000000000000000000000000000000000000000000610b76565b9561412b61410d89613cfa565b6141246141186115e4565b63ffffffff909b168b52565b60208a0152565b88880152565b6060860152565b61414130610b76565b9161414b60405190565b80958194829361415f63ddc28c5860e01b90565b845260048401614090565b03915afa908115612a8a57600091614180575090565b61028b915060403d6040116141a2575b61419a818361049d565b810190614023565b503d614190565b6141b16116bf565b906000825260208080840160008152016128906139a9565b61028b6141a9565b6001600160401b038116610299565b905051906102b2826141d1565b91906080838203126102a05761053190604061420960606104c3565b946142148382613fe7565b865261422383602083016141e0565b602087015201613ff4565b906080828203126102a05761028b916141ed565b60809360009361431861415f936142576141c9565b50614310602061426f61426a8a88015190565b61481c565b95019361427a855190565b614286611b3c8b6113d2565b11614370575b6143096142b87f0000000000000000000000000000000000000000000000000000000000000000610b76565b98614302632637a450976142fb6142d66142d189613cfa565b925190565b6142e38f611b3c906113d2565b11976142ed6115e4565b9e8f019063ffffffff169052565b60208d0152565b60408b0152565b6060890152565b151586880152565b61433161432460405190565b9788968795869460e01b90565b03925af1908115612a8a57600091614347575090565b61028b915060803d608011614369575b614361818361049d565b81019061422e565b503d614357565b61438061437b865190565b61485f565b61428c565b6143a66143a06143956000611402565b612674846000611909565b91610b76565b907f8be0079c531659141344cd1fd0a4f28419497f9722a3daafe3b4186f6b6457e06143d160405190565b600090a3565b906143e0825190565b811015611c1a576020809102010190565b9160001960089290920291821b911b611890565b919061441661028b6118c7936113d2565b9083546143f1565b6102b291600091614405565b818110614435575050565b80614443600060019361441e565b0161442a565b9190601f811161445857505050565b61446a6102b293600052602060002090565b906020601f84018190048301931061448c575b6020601f90910104019061442a565b909150819061447d565b9061449f815190565b906001600160401b0382116104be576144c2826144bc85546109a0565b85614449565b602090601f83116001146144fd576118c79291600091836144f2575b5050600019600883021c1916906002021790565b0151905038806144de565b601f1983169161451285600052602060002090565b9260005b81811061455057509160029391856001969410614537575b50505002019055565b01516000196008601f8516021c1916905538808061452e565b91936020600181928787015181550195019201614516565b906102b291614496565b805163ffffffff16825261028b91606081019160409060208181015161ffff16908401520151906040818403910152610ad0565b9061028b91614572565b906145c66145bc835190565b8083529160200190565b90816145d86020830284019460200190565b926000915b8383106145ec57505050505090565b9091929394602061460f614608838560019503875289516145a6565b9760200190565b93019301919392906145dd565b602080825261028b929101906145b0565b9060009161463b60006113d2565b61464661028b835190565b8110156146d1578061466860406146606146cc94866143d7565b510151614716565b6146c6604061467783866143d7565b5101516146c16146a2600261469c8a614690888b6143d7565b51015163ffffffff1690565b9061093a565b6146bb60206146b1878a6143d7565b51015161ffff1690565b9061096a565b614568565b60010190565b61463b565b507fbe4864a8e820971c0247f5992e2da559595f7bf076a21cb5928d443d2a13b674919250613fe29061470360405190565b9182918261461c565b61028b600361241b565b6002810151614729611e2261096361470c565b036147315750565b611b879061473e60405190565b639a6d49cd60e01b815291829160048301610b04565b61476d61476761028b9263ffffffff1690565b60e01b90565b6001600160e01b03191690565b6001600160a01b039182168152911660208201526060810192916102b29160400152565b906147e3906147d46102b2956004956147ba6323b872dd614754565b936147c460405190565b978895602087019081520161477a565b6020820181038252038361049d565b614928565b6147e36004926147d46102b29561480263a9059cbb614754565b9261480c60405190565b96879460208601908152016129ea565b8034036148265790565b6040516304fb820960e51b8152346004820152602490fd5b905051906102b28261028e565b906020828203126102a05761028b9161483e565b6148887f0000000000000000000000000000000000000000000000000000000000000000610b76565b9061489260405190565b63393f876560e21b815291602083600481845afa928315612a8a576000936148f7575b506148c361027f6000613060565b6001600160a01b038416146148e5576148de6102b293610b76565b339061479e565b6040516329b99a9560e11b8152600490fd5b61491a91935060203d602011614921575b614912818361049d565b81019061484b565b91386148b5565b503d614908565b61493461493b91610b76565b91826149b0565b805161494a611b3c60006113d2565b1415908161498c575b5061495b5750565b611b879061496860405190565b635274afe760e01b8152918291600483016001600160a01b03909116815260200190565b6149aa915080602061499f612570935190565b8183010191016129d6565b38614953565b61028b916149be60006113d2565b916149f0565b9061158261103483610ffc565b3d156149eb576149e03d6149c4565b903d6000602084013e565b606090565b916149fa30610b76565b81813110614a2457506000828192602061028b969551920190855af1614a1e6149d1565b91614a55565b611b8790614a3160405190565b63cd78605960e01b8152918291600483016001600160a01b03909116815260200190565b90614a605750614ac5565b8151614a6f611b3c60006113d2565b1480614aaf575b614a7e575090565b611b8790614a8b60405190565b639996b31560e01b8152918291600483016001600160a01b03909116815260200190565b50803b614abf611b3c60006113d2565b14614a76565b8051614ad4611b3c60006113d2565b1115614ae257805190602001fd5b604051630a12f52160e11b8152600490fdfea26469706673582212202d1dc312ebf0aa46875f63dedff1d7ea66c595148793f20c859d0958cf05a8b064736f6c63430008160033",
  "linkReferences": {},
  "deployedLinkReferences": {}
}